:020000040000FA
:100000000C945E000C9486000C9486000C94860080
:100010000C9486000C9486000C9486000C94860048
:100020000C9486000C9486000C9486000C94860038
:100030000C9486000C9486000C9486000C94860028
:100040000C9406080C9486000C9476080C945008C6
:100050000C9486000C9486000C9486000C94860008
:100060000C9486000C9486000000000024002700F9
:100070002A0000000000250028002B0004040404CE
:100080000404040402020202020203030303030342
:10009000010204081020408001020408102001021F
:1000A00004081020000000080002010000030407FB
:1000B0000000000000000000A8084A0C11241FBE28
:1000C000CFEFD8E0DEBFCDBF11E0A0E0B1E0EAE3C2
:1000D000FDE102C005900D92AA35B107D9F722E0E3
:1000E000AAE5B1E001C01D92A53BB207E1F710E01F
:1000F000CDE5D0E004C02197FE010E94650DCC350E
:10010000D107C9F70E9402090C94900E0C940000CC
:10011000382F292F4091300290E0622F70E041117A
:1001200003C030912E0229C0413099F440912E0233
:10013000642F70E0249FA001112420FD03C0840FD0
:10014000951F0895615071099B01281B390BC90146
:10015000F6CF423049F480912F02AB01389F400D19
:10016000511D1124CA0108954330D9F620912F0260
:10017000422F50E080FD06C0CB01239F800D911DD2
:10018000112408959C012F5F3F4F249FC001259F9C
:10019000900D349F900D11240197861B970B0895A5
:1001A00090E0FC01EC55FF4F2491FC01E057FF4F1C
:1001B0003491FC01E458FF4FE491EE23B9F022237F
:1001C00039F02330F1F098F4213009F1223019F19F
:1001D000F0E0EE0FFF1FEE58FF4FA591B4918FB7DF
:1001E000F894EC9130953E233C938FBF08952730CF
:1001F000A9F02830C9F0243059F7809180008F7D14
:1002000003C0809180008F7780938000E1CF84B518
:100210008F7784BDDDCF84B58F7DFBCF8091B0001B
:100220008F778093B000D4CF8091B0008F7DF9CFCD
:10023000FC01538D448D252F30E0842F90E0821BEC
:10024000930B541710F0CF96089501970895FC0171
:10025000918D828D981761F0A28DAE0FBF2FB11DC9
:100260005D968C91928D9F5F9F73928F90E0089521
:100270008FEF9FEF0895FC01918D828D981731F0DB
:10028000828DE80FF11D858D90E008958FEF9FEF2F
:100290000895FC01918D228D892F90E0805C9F4F05
:1002A000821B91098F7399270895FC01A48DA80FD3
:1002B000B92FB11DA35ABF4F2C91848D90E00196A8
:1002C0008F739927848FA689B7892C93A089B189C8
:1002D0008C91837080648C93938D848D981306C069
:1002E0000288F389E02D80818F7D80830895EF92CD
:1002F000FF920F931F93CF93DF93EC0181E0888FE0
:100300009B8D8C8D98131AC0E889F989808185FFAF
:1003100015C09FB7F894EE89FF896083E889F98951
:1003200080818370806480839FBF81E090E0DF9153
:10033000CF911F910F91FF90EF900895F62E0B8DA6
:1003400010E00F5F1F4F0F731127E02E8C8D8E1161
:100350000CC00FB607FCFACFE889F989808185FFC8
:10036000F5CFCE010E945501F1CFEB8DEC0FFD2FA3
:10037000F11DE35AFF4FF0829FB7F8940B8FEA8983
:10038000FB8980818062CFCFCF93DF93EC01888D92
:100390008823B9F0AA89BB89E889F9898C9185FD00
:1003A00003C0808186FD0DC00FB607FCF7CF8C918E
:1003B00085FFF2CF808185FFEDCFCE010E945501F0
:1003C000E9CFDF91CF91089585E691E00E94490140
:1003D00021E0892B09F420E0822F089580E090E04D
:1003E000892B29F00E94E40181110C9400000895EA
:1003F000CF93DF9390E0FC01E057FF4F24918458A6
:100400009F4FFC0184918823C9F090E0880F991FC9
:10041000FC01E859FF4FA591B491FC01EE58FF4F44
:10042000C591D49161110DC09FB7F8948C9120951E
:1004300082238C938881282328839FBFDF91CF91CB
:100440000895623051F49FB7F8943C91822F8095C3
:1004500083238C93E8812E2BEFCF8FB7F894EC9108
:100460002E2B2C938FBFEACF8E50806480937C001C
:1004700080917A00806480937A0080917A0086FD72
:10048000FCCF809178009091790008953FB7F8945F
:100490008091610190916201A0916301B09164012A
:1004A00026B5A89B05C02F3F19F00196A11DB11DCF
:1004B0003FBFBA2FA92F982F8827BC01CD01620F0B
:1004C000711D811D911D42E0660F771F881F991FC6
:1004D0004A95D1F708958F929F92AF92BF92CF9293
:1004E000DF92EF92FF924B015C010E9446026B018A
:1004F0007C010E9446026C197D098E099F09683EA5
:10050000734081059105A8F321E0821A9108A108A2
:10051000B10888EEC80E83E0D81EE11CF11C8114DE
:100520009104A104B10429F7FF90EF90DF90CF90E0
:10053000BF90AF909F908F900895AF92BF92CF924F
:10054000DF92EF92FF920F931F93CF93DF936C0193
:100550007B018B01040F151FEB015E01AE18BF0874
:10056000C017D10759F06991D601ED91FC91019026
:10057000F081E02DC6010995892B79F7C501DF913E
:10058000CF911F910F91FF90EF90DF90CF90BF9090
:10059000AF9008958F929F92AF92BF92CF92DF92C9
:1005A000EF92FF921F93CF93DF93FC01828193819F
:1005B00068177907A8F54A01AA24BB24C82DC32EC1
:1005C000D42EE52EFF241C2DD22F8085882361F0A8
:1005D000889E40011124C92D8C9D600111241D2D80
:1005E000829FD0011124DB2FA685E184F2849385BC
:1005F000A91322C0CB01880F991F680F791F6E0DB8
:100600007F1DA385A60FB72FB11DCC93A485A60F80
:10061000B72FB11D1C938585680F711DFB01D08319
:10062000DF91CF911F91FF90EF90DF90CF90BF901F
:10063000AF909F908F900895660F771F660F771F7A
:100640006E0D7F1D252F332744275527882349F01A
:1006500090E0829F7001839FF00C929FF00C112418
:100660002F2DA60FB72FB11D2C93CBCF8F929F921A
:10067000AF92BF92EF92FF920F931F93CF93DF93AE
:10068000FC010281138101151105B1F0211531051D
:1006900021F02017310708F489014A015B017C0130
:1006A000D0E0C0E0A5019401BE01C7010E94CA02CA
:1006B00021960C171D07B1F7DF91CF911F910F9174
:1006C000FF90EF90BF90AF909F908F900895CF9242
:1006D000DF92EF92FF920F931F93CF93DF93CDB7EB
:1006E000DEB729970FB6F894DEBF0FBECDBF8C01E1
:1006F000DC0119968D919C91892B09F473C00E949D
:100700004602F801C784D088E188F2886C157D051F
:100710008E059F0520F46787708B818B928BF80183
:10072000C784D088E188F2886C197D098E099F09F9
:100730006C3271408105910510F3F894D80114963C
:100740008D919C9115979A8389831996ED91FC91CF
:100750007F01BFEFEB1AFB0A80818987F801908146
:100760000388F489E02DD80155968C91992309F4DA
:1007700048C09081982B98879081809589238F839A
:100780008F818C8388E08B8358856F8149853B817D
:100790002C8189819A81D701508347FD252F3A9575
:1007A0002083262F39F0441F00C000006083000022
:1007B00000C0F2CF38E04D9160830000019761F7EF
:1007C000D8015496FC93EE93539749873B832C832F
:1007D0009A83898378940E944602F8016787708B18
:1007E000818B928B29960FB6F894DEBF0FBECDBFDA
:1007F000DF91CF911F910F91FF90EF90DF90CF90FD
:1008000008959081982B98879081809589238F8374
:100810008F818E8388E08D8358856F8149853D81E6
:100820002E8189819A81D701508347FD252F00C0F1
:1008300000C0208300C000C000C000C000C06083B2
:100840000000262F3A9541F0441F000000C000C070
:1008500000C000C000C0E8CF38E04D9100C0608308
:1008600000C0019709F7D8015496FC93EE93539773
:1008700049873D832E83ACCFCF93DF93AB01BC017F
:10088000C8E1D2E0298D3A8DCE010E943603CE0117
:100890000E9467031B8E1C8EDF91CF9108953F92BB
:1008A0004F925F926F927F928F929F92AF92BF9280
:1008B000CF92DF92EF92FF920F931F93CF93DF932C
:1008C000CDB7DEB7CC56D1090FB6F894DEBF0FBE58
:1008D000CDBF362E90E1EAE0F1E0DE01AB5ABF4F2A
:1008E00001900D929A95E1F740901A0150901B01EA
:1008F00060901C0170901D0180901E0190901F015E
:10090000A0902001B0902101C0902201D09023013D
:10091000E0902401F090250100912601109127011B
:10092000209128013091290140912A0150912B01F9
:1009300060912C0170912D01AD964CAF5DAF6EAF03
:100940007FAFAD9740912E0150912F016091300102
:1009500070913101A9964CAF5DAF6EAF7FAFA99793
:100960005AAF49AF7CAF6BAF5EAE4DAE21967FAE56
:100970006EAE219723969FAE8EAE23972596BFAE7F
:10098000AEAE25972796DFAECEAE27972996FFAE5F
:10099000EEAE29972B961FAF0EAF2B972D963FAF3C
:1009A0002EAF2D97AD964CAD5DAD6EAD7FADAD97D5
:1009B0002F965FAF4EAF2F9761967FAF6EAF619767
:1009C00040913201509133016091340170913501B1
:1009D00063965FAF4EAF639765967FAF6EAF6597D7
:1009E00065E570E06C0F7D1F680F711DFB01808154
:1009F000B12C882309F4AFC0C82ED12C80FFA6C02B
:100A0000EB2DF0E0DF011E96AA0FBB1FAA0FBB1F44
:100A100021E030E02C0F3D1FA20FB31F9C91930DDE
:100A2000EE0FFF1FEE0FFF1FE20FF31F81AD8D5F73
:100A3000F2ACF30C23AD53E0E52EE20E092F182F94
:100A40003F2D391B2E2D281B37FD319527FD219574
:100A50002317ECF59F150CF1C8010E94880020E0D7
:100A600030E04FEF50E0BC0188E192E00E94CA0202
:100A700088E192E00E9467038FEF800F1E151CF53E
:100A80001F5F8F150CF45EC0082FE6CFE1160CF443
:100A90001150F8160CF456C0082FC8010E948800A7
:100AA00020E030E04FEF50E0BC0188E192E00E948E
:100AB000CA0288E192E00E94670381E0800F1E1560
:100AC0002CF71F5FE6CFE116E4F61150DACF8E1552
:100AD000FCF0C8010E94880020E030E04FEF50E0B9
:100AE000BC0188E192E00E94CA0288E192E00E9483
:100AF00067038FEF810F0F150CF50F5F8E1514F143
:100B0000182FE7CFF0160CF40150E816DCF0182F80
:100B1000C8010E94880020E030E04FEF50E0BC01A7
:100B200088E192E00E94CA0288E192E00E94670395
:100B300081E0810F0F1534F70F5FE7CFF016F4F661
:100B40000150DCCF0093330210933402D594C79444
:100B50008C2DB3944ECFC459DF4F0FB6F894DEBF3F
:100B60000FBECDBFDF91CF911F910F91FF90EF90FE
:100B7000DF90CF90BF90AF909F908F907F906F90BD
:100B80005F904F903F9008951F93CF93DF93809194
:100B90004C0290914D020E948800209139023091C0
:100BA0003A0240913B0250913C02BC0188E192E044
:100BB0000E94CA021091B002D0E0C0E02196C11795
:100BC000B8F4FE01EE0FFF1FE45BFD4F80819181C1
:100BD0000E94880020913502309136024091370200
:100BE00050913802BC0188E192E00E94CA02E6CF2F
:100BF00088E192E0DF91CF911F910C946703CF932E
:100C0000DF93FC01E856FF4F4081242F30E0EC01D8
:100C1000A98DBA8D2A173B0758F4265E3F4F220F45
:100C2000331F280F391FD9016D937C934F5F408389
:100C3000DF91CF910895CF92DF92EF92FF92CF9301
:100C4000DF93D091B002C0902E02D12CF12CE12C78
:100C5000C114D104E104F10439F00E949E0CA701F3
:100C600096010E94F60C6B01CC2DC0902F02D12C66
:100C7000F12CE12CC114D104E104F10439F00E94FB
:100C80009E0CA70196010E94F60C6B01E8E1F2E0D0
:100C900080E091E0D81751F094A9C91303C095A939
:100CA000C91689F28F5F329690E0F4CF9111CBCFC5
:100CB000C0934802C0924902809148029091490233
:100CC0000E94880020913D0230913E0240913F02F7
:100CD00050914002BC0188E192E00E94CA0288E182
:100CE00092E0DF91CF91FF90EF90DF90CF900C9446
:100CF00067038F929F92AF92BF92CF92DF92EF9253
:100D0000FF92D0904502F12CE12CED14D0F4F701C4
:100D1000EE0FFF1FE45BFD4F808191810E948800F0
:100D2000209141023091420240914302509144028D
:100D3000BC0188E192E00E94CA028FEFE81AF80A2B
:100D4000E4CFC0902E02D12CF12CE12C80904502F2
:100D5000882D8150990B4C01092C000CAA08BB0866
:100D60008C149D04AE04BF048CF4C818D908EA089A
:100D7000FB0841F00E949E0CA70196010E94F60C10
:100D80006B017C018C0C9D1CAE1CBF1CC0902F0203
:100D9000D12CF12CE12CC114D104E104F10439F07F
:100DA0000E949E0CA70196010E94F60C6B01809197
:100DB0004902C81631F21092B002F12C809145021E
:100DC000F81648F4682D6F197C2D88E192E00E9496
:100DD000FF05F394F3CFFF90EF90DF90CF90BF909B
:100DE000AF909F908F900C94C4054F925F926F923A
:100DF0007F928F929F92AF92BF92EF920F931F9329
:100E0000CF93DF93EC012A013B014801590119827C
:100E100018861F86188A198A1A8A81E08E878B871E
:100E20001C8692E09D87888302EC11E01D830C8371
:100E300082EC91E00E946B0D9A878987009709F4F4
:100E40007CC0FC019801119221503040E1F786E905
:100E500090E09B838A8386E090E09F838E838981E4
:100E6000882339F061E086E00E94F80186E00E9464
:100E7000D000E2E8F0E0E491F0E0EE0FFF1FEE5862
:100E8000FF4F859194919C8B8B8BE6E9F0E0E49188
:100E9000ED8B8AE08E8B8FE08F8B86E990E09A8FC6
:100EA000898F1B8E1C8EE88E4D8E5E8E6F8E78A283
:100EB00089A29AA2ABA2BCA28FEF90E0A0E0B0E022
:100EC0008DA39EA3AFA3B8A719A61AA61BA61CA6FE
:100ED00085E08DA71EA61FA618AA19AAFE01E8562E
:100EE000FF4F108260E071E0CE010E94FF0561E0DB
:100EF00071E0CE010E94FF0562E071E0CE010E9428
:100F0000FF0563E071E0CE010E94FF0564E071E03F
:100F1000CE010E94FF0584E08AAB81E08BABDF91BC
:100F2000CF911F910F91EF90BF90AF909F908F90B6
:100F30007F906F905F904F9008951D821C821B825E
:100F40001A8289CFCF93DF93EC0189859A850E941D
:100F5000070E8E819F8197FD05C060E0DF91CF91E4
:100F60000C94F801DF91CF910895FC0101900020CD
:100F7000E9F73197AF01481B590BBC0185E691E0B9
:100F80000C949D028F929F92AF92BF920F931F93EA
:100F9000CF93DF93CDB7DEB7A1970FB6F894DEBF3E
:100FA0000FBECDBF19A2423008F44AE08E010F5D9A
:100FB0001F4F842E912CB12CA12CA50194010E94CD
:100FC000280DE62FB901CA01EA30F4F4E05DD8013A
:100FD000EE938D01232B242B252B79F790E080E0D5
:100FE000109719F0CD010E94B507A1960FB6F8949D
:100FF000DEBF0FBECDBFDF91CF911F910F91BF908C
:10100000AF909F908F900895E95CE1CF1F920F926F
:101010000FB60F9211242F933F938F939F93AF930B
:10102000BF9380915D0190915E01A0915F01B091AD
:10103000600130915C0123E0230F2D3758F50196B4
:10104000A11DB11D20935C0180935D0190935E0111
:10105000A0935F01B0936001809161019091620162
:10106000A0916301B09164010196A11DB11D80930F
:10107000610190936201A0936301B0936401BF91F9
:10108000AF919F918F913F912F910F900FBE0F9035
:101090001F90189526E8230F0296A11DB11DD2CFEF
:1010A0001F920F920FB60F9211242F933F934F93DD
:1010B0005F936F937F938F939F93AF93BF93EF93C0
:1010C000FF9385E691E00E945501FF91EF91BF915A
:1010D000AF919F918F917F916F915F914F913F91D0
:1010E0002F910F900FBE0F901F9018951F920F9287
:1010F0000FB60F9211242F938F939F93EF93FF932B
:10110000E0917501F09176018081E0917B01F09191
:101110007C0182FD1BC0908180917E018F5F8F7367
:1011200020917F01821741F0E0917E01F0E0EB59C0
:10113000FE4F958F80937E01FF91EF919F918F914C
:101140002F910F900FBE0F901F9018958081F4CFB4
:10115000EF920F931F93E5E6F1E01382128288EE7F
:1011600093E0A0E0B0E084839583A683B7838AE30D
:1011700091E09183808385EC90E09587848784EC6F
:1011800090E09787868780EC90E0918B808B81EC54
:1011900090E0938B828B82EC90E0958B848B86EC35
:1011A00090E0978B868B118E128E138E148EEE2408
:1011B000E39400E010E02FEF30E040E05FEF60E00C
:1011C00070E088E192E00E94F506E2E0F2E081E062
:1011D0008083118213821282158214822FEF3FEFD7
:1011E000378326831086128611868387148692E0C1
:1011F000958786871786108A118A128A1F910F9108
:10120000EF900895CF93DF93CDB7DEB7C959D109D9
:101210000FB6F894DEBF0FBECDBF789484B5826060
:1012200084BD84B5816084BD85B5826085BD85B58A
:10123000816085BD80916E00816080936E00109208
:101240008100809181008260809381008091810083
:101250008160809381008091800081608093800014
:101260008091B10084608093B1008091B000816072
:101270008093B00080917A00846080937A0080919E
:101280007A00826080937A0080917A0081608093F6
:101290007A0080917A00806880937A001092C10071
:1012A00062E083E00E94F80162E084E00E94F801BD
:1012B00062E085E00E94F80162E085E00E94F801AA
:1012C00062E087E00E94F80162E080E10E94F8019C
:1012D00061E070E080E090E00E94ED0C61E08DE064
:1012E0000E94F801E12C00E01FEF20E030E040E038
:1012F00050E06FEF70E0CE0101960E94F50689E99B
:10130000FE013196A8E1B2E001900D928A95E1F7D5
:10131000CE0101960E94A20780911E0290911F02A9
:1013200097FD07C061E00E94F80180911E020E94B3
:10133000D00081E08093190222E330E04FEF50E0CB
:1013400060E070E088E192E00E94360388E192E07C
:101350000E94670368EE73E080E090E00E946B02F9
:1013600060E070E08FEF90E00E943C0468EE73E074
:1013700080E090E00E946B0260E070E0CB010E9490
:101380003C0430E020E040E050E0BA0188E192E027
:101390000E94360388E192E00E9467030E941B06C8
:1013A0000E94790668EE73E080E090E00E946B0294
:1013B00092E0E92EF12CCC24C394D12C35E0632E9D
:1013C0008FE00E9434028C018EE00E9434025C01A6
:1013D000013283E0180708F452C0D0925B01C0923A
:1013E0005A0188E491E00E94B507B50190E080E0E1
:1013F0004AE00E94C2078DE491E00E94B50780E5B3
:1014000091E00E94B507B80190E080E04AE00E94B8
:10141000C2078DE491E00E94B50785E591E00E9446
:10142000B50780905A0190905B01092C000CAA0826
:10143000BB084AE0C501B401B7FE0DC06DE285E608
:1014400091E00E94770166277727CB016819790917
:101450008A099B094AE00E94C2078DE491E00E943C
:10146000B50780915A01882361F19091470293302A
:1014700008F05AC0833019F58093470222C0083C17
:10148000110528F4F0925B01E0925A01AACF91E293
:10149000A91693E0B90638F0E4E0F0E0F0935B01C0
:1014A000E0935A019ECFF8ECAF16B10408F099CF43
:1014B00083E090E090935B0180935A0192CF843057
:1014C000D9F2809147028823C1F1E091B002F0E0A7
:1014D000EE0FFF1FE65BFD4F8081918190934B02E1
:1014E00080934A020E94880020914102309142027A
:1014F0004091430250914402BC0188E192E00E9475
:10150000CA02E091B002E150F0E0EE0FFF1FE85E8A
:10151000FD4F28E132E02E173F0779F082A993A909
:1015200095AB84AB3297F7CF9350923050F6813021
:1015300009F4A2CF823029F69FCF80914D0290917D
:101540004702933009F078C0882309F446C18150DE
:1015500080934D020E94C40580914C0290914D02EF
:101560000E94880020911A0230911B02212C312CFC
:1015700021018217930708F08DC030912602109147
:101580002302A0912102B091220280902002E32F39
:10159000F0E06091240270E04091250250E03113A8
:1015A000B0C09C01220F331F820F931FA80FB91FD9
:1015B000EA0FFB1F30816A0F7B1FFB010081A40F24
:1015C000B51F7C90882009F45BC0912CB12CA12C14
:1015D000632F70E0762F6627072E000C880B990B7F
:1015E000A50194010E94280D290133242224602F93
:1015F00070E0762F6627072E000C880B990BA5014B
:1016000094010E94280D542F432F322F2227222A83
:10161000332A442A552A672D70E0762F6627072E35
:10162000000C880B990BA50194010E94280D222A19
:10163000332A442A552A2EC0943051F420912F0287
:101640002150330B821713060CF0C7C08F5F80CF79
:1016500080914C02913039F4882309F4BEC0815046
:1016600080934C0277CF923009F074CF20912E02F4
:101670002150330B821713060CF0AFC08F5FF0CFF1
:10168000202E312C512C412C542C432C322C222432
:10169000432A27288091350290913602A091370283
:1016A000B091380282159305A405B50509F495C0DB
:1016B00090914C028091480298131CC090914D0269
:1016C00080914902981316C0809146028F5F8093E3
:1016D0004602809145028F5F8093450260914A02E5
:1016E00070914B0288E192E00E94FF050E94C405C0
:1016F0000E941B066CE271E080E090E00E946B02A9
:101700005FCE880F991F880F991F8A0F9B1FE80FC4
:10171000F91F3081FC01E10FF11D1081680F791F65
:10172000FB017080840F951FFC010081882009F463
:1017300047C0912CB12CA12C632F70E0762F662727
:10174000072E000C880B990BA50194010E94280D0F
:10175000522E442433242224612F70E0762F6627F2
:10176000072E000C880B990BA50194010E94280DEF
:10177000A90133272227222A332A442A552A602FF7
:1017800070E0762F6627072E000C880B990BA501B9
:1017900094010E94280D222A332A442A552A672DB3
:1017A00070E0762F6627072E000C880B990BA50199
:1017B00094010E94280D542F432F322F222737CF18
:1017C000812F90E0B0E0A0E0DC0199278827B32BBF
:1017D0001C012D01202A37285DCF68EE73E080E0E0
:1017E00090E00E946B0260E070E0CB010E943C043C
:1017F000809146026AE00E94590D192F60E073E063
:101800000E944F0465E073E0812F0E944F0460ED59
:1018100077E080E090E00E946B0210925B011092F2
:101820005A016092450210924602109247021092AD
:101830004802109249021092B00260E071E088E123
:1018400092E00E94FF0561E071E088E192E00E9471
:10185000FF0562E071E088E192E00E94FF0563E02D
:1018600071E088E192E00E94FF0564E071E088E1A8
:1018700092E00E94FF0560914102709142028091C6
:101880004302909144020E943C040E941B060E9465
:10189000790630CF82E092E00E94A20788E192E0D0
:1018A0000C94A2078F929F92AF92BF92CF92DF9239
:1018B000EF92FF92CF93DF93EC01688179818A8167
:1018C0009B81611571058105910521F464E279ED33
:1018D0008BE597E02DE133EF41E050E00E94F60CFC
:1018E00049015A019B01AC01A7EAB1E40E94150D20
:1018F0006B017C01ACEEB4EFA50194010E94230DB5
:10190000C60ED71EE81EF91EF7FE06C081E0C81AF3
:10191000D108E10880E8F80AC882D982EA82FB820D
:10192000C701B6019F77DF91CF91FF90EF90DF90D5
:10193000CF90BF90AF909F908F9008958F929F927D
:10194000AF92BF92CF92DF92EF92FF92609100012F
:10195000709101018091020190910301611571055F
:101960008105910521F464E279ED8BE597E02DE1A5
:1019700033EF41E050E00E94F60C49015A019B010F
:10198000AC01A7EAB1E40E94150D6B017C01ACEE3D
:10199000B4EFA50194010E94230DC60ED71EE81EC8
:1019A000F91EF7FE06C081E0C81AD108E10880E8F8
:1019B000F80AC0920001D0920101E0920201F09277
:1019C0000301C701B6019F77FF90EF90DF90CF90A2
:1019D000BF90AF909F908F90089560930001709397
:1019E000010180930201909303010895052E97FB56
:1019F0001EF400940E940D0D57FD07D00E94280D83
:101A000007FC03D04EF40C940D0D50954095309585
:101A100021953F4F4F4F5F4F08959095809570955A
:101A200061957F4F8F4F9F4F08950E944A0DA59F4C
:101A3000900DB49F900DA49F800D911D11240895C9
:101A4000B7FF0C94150D0E94150D821B930B089582
:101A5000A1E21A2EAA1BBB1BFD010DC0AA1FBB1FB2
:101A6000EE1FFF1FA217B307E407F50720F0A21B24
:101A7000B30BE40BF50B661F771F881F991F1A9491
:101A800069F760957095809590959B01AC01BD01BB
:101A9000CF010895A29FB001B39FC001A39F700D15
:101AA000811D1124911DB29F700D811D1124911D66
:101AB0000895991B79E004C0991F961708F0961BAA
:101AC000881F7A95C9F780950895EE0FFF1F05903E
:101AD000F491E02D09940F931F93CF93DF938230FD
:101AE000910510F482E090E0E091B302F091B4022D
:101AF00030E020E0B0E0A0E0309799F42115310506
:101B000009F44AC0281B390B24303105D8F58A81E5
:101B10009B816115710589F1FB0193838283FE012D
:101B200011C0408151810281138148175907E0F0AB
:101B30004817590799F4109761F012960C93129771
:101B400013961C933296CF01DF91CF911F910F9185
:101B500008950093B3021093B402F4CF2115310518
:101B600051F04217530738F0A901DB019A01BD017A
:101B7000DF01F801C1CFEF01F9CF9093B402809358
:101B8000B302CDCFFE01E20FF31F81939193225058
:101B9000310939832883D7CF2091B1023091B20225
:101BA000232B41F420910601309107013093B202BA
:101BB0002093B102209104013091050121153105D6
:101BC00041F42DB73EB74091080150910901241B03
:101BD000350BE091B102F091B202E217F307A0F4E5
:101BE0002E1B3F0B2817390778F0AC014E5F5F4F73
:101BF0002417350748F04E0F5F1F5093B2024093F1
:101C0000B102819391939FCFF0E0E0E09CCFCF931E
:101C1000DF930097E9F0FC01329713821282A091C2
:101C2000B302B091B402ED0130E020E01097A1F4CE
:101C300020813181820F931F2091B1023091B20235
:101C40002817390709F061C0F093B202E093B1029E
:101C5000DF91CF910895EA01CE17DF07E8F54A81B9
:101C60005B819E0141155105B1F7E901FB83EA83D0
:101C700049915991C40FD51FEC17FD0761F480817C
:101C800091810296840F951FE9019983888382814F
:101C900093819B838A83F0E0E0E012968D919C9182
:101CA00013970097B9F52D913C911197CD010296AC
:101CB000820F931F2091B1023091B2022817390789
:101CC00039F6309751F51092B4021092B302B093E6
:101CD000B202A093B102BCCFD383C28340815181B1
:101CE000840F951FC817D90761F44E5F5F4F888135
:101CF0009981480F591F518340838A819B81938327
:101D000082832115310509F0B0CFF093B402E0933E
:101D1000B3029ECFFD01DC01C0CF13821282D7CF68
:101D200010E0CDE5D0E004C0FE010E94650D2196D3
:101D3000CE35D107C9F7F894FFCF010000000000AD
:101D4000B50280003F065B4F666D7D077F6F777C35
:101D5000395E7971040104030405040701080308CE
:101D60000005000700010003010003000104030453
:101D70000000000077019D021801C40149012701FC
:101D80003B0156203D20000D0A0048203D20004D1B
:041D9000203D2000D2
:107E0000112484B714BE81FFF0D085E080938100F7
:107E100082E08093C00088E18093C10086E0809377
:107E2000C20080E18093C4008EE0C9D0259A86E02C
:107E300020E33CEF91E0309385002093840096BBD3
:107E4000B09BFECF1D9AA8958150A9F7CC24DD24C4
:107E500088248394B5E0AB2EA1E19A2EF3E0BF2EE7
:107E6000A2D0813461F49FD0082FAFD0023811F036
:107E7000013811F484E001C083E08DD089C08234E0
:107E800011F484E103C0853419F485E0A6D080C0E4
:107E9000853579F488D0E82EFF2485D0082F10E0AE
:107EA000102F00270E291F29000F111F8ED06801E7
:107EB0006FC0863521F484E090D080E0DECF843638
:107EC00009F040C070D06FD0082F6DD080E0C81688
:107ED00080E7D80618F4F601B7BEE895C0E0D1E017
:107EE00062D089930C17E1F7F0E0CF16F0E7DF06D8
:107EF00018F0F601B7BEE89568D007B600FCFDCFD4
:107F0000A601A0E0B1E02C9130E011968C91119780
:107F100090E0982F8827822B932B1296FA010C0160
:107F200087BEE89511244E5F5F4FF1E0A038BF0790
:107F300051F7F601A7BEE89507B600FCFDCF97BE46
:107F4000E89526C08437B1F42ED02DD0F82E2BD052
:107F50003CD0F601EF2C8F010F5F1F4F84911BD097
:107F6000EA94F801C1F70894C11CD11CFA94CF0C13
:107F7000D11C0EC0853739F428D08EE10CD085E9AC
:107F80000AD08FE07ACF813511F488E018D01DD067
:107F900080E101D065CF982F8091C00085FFFCCF94
:107FA0009093C60008958091C00087FFFCCF809118
:107FB000C00084FD01C0A8958091C6000895E0E648
:107FC000F0E098E1908380830895EDDF803219F02E
:107FD00088E0F5DFFFCF84E1DECF1F93182FE3DFCA
:107FE0001150E9F7F2DF1F91089580E0E8DFEE27F6
:047FF000FF270994CA
:027FFE00040479
:00000001FF
